:020000040800F2
:1000000000040020B10100088003000880030008FC
:1000100080030008800300088003000880030008B4
:10002000800300088003000880030008A103000883
:1000300080030008800300088003000871040008A2
:100040008003000880030008800300088003000884
:100050008003000880030008800300088003000874
:10006000800300088003000880030008110F0008C7
:10007000410F0008710F0008A10F0008D10F000800
:100080000110000831100008011500088003000865
:100090008003000880030008800300088003000834
:1000A0008003000880030008800300088003000824
:1000B0008003000880030008611600088003000820
:1000C0008003000880030008800300088003000804
:1000D00080030008A1180008C1180008E1180008F2
:1000E00080030008800300088003000880030008E4
:1000F00080030008800300088003000861100008E6
:1001000080030008800300088003000880030008C3
:1001100080030008800300088003000880030008B3
:1001200091100008C1100008F1100008211100080A
:1001300051110008800300088003000880030008B4
:100140008003000880030008800300088003000883
:1001500081110008B1110008E1110008011900081F
:100160008003000880030008800300088003000863
:100170008003000880030008800300088003000853
:08018000800300088003000861
:10019000704700BFAFF30080AFF30080AFF3008083
:1001A000FEE700BFAFF30080AFF30080AFF3008045
:1001B00072B6634C84F30988022383F31488BFF377
:1001C0006F8F01F09DFD5F4A5F48824217D2134650
:1001D0004FF0553143F8041BD64385198342C5F3CC
:1001E00080050CD225B1196002F10803834206D2C2
:1001F0001A4642F8041B5960131D8342F8D3534A30
:10020000A24217D213464FF0553143F8041BD54391
:100210006019A342C0F380000CD220B1196002F132
:100220000803A34206D21E4646F8041B5960331D3C
:10023000A342F8D34649474CA14222D2464802463F
:100240000B4652F8046B43F8046BCD4304EB050CEA
:10025000A342CCF3800514D23DB116681E6001F1B3
:100260000803A34200F108020BD21146184651F8C8
:10027000045B40F8045B52685A60031D0A1DA342E8
:10028000F3D3364A3648824216D21346002143F849
:10029000041BD64384198342C4F380040CD224B1D6
:1002A000196002F10803834206D21A4642F8041B81
:1002B0005960131D8342F8D32A4D2B4EFFF768FF78
:1002C000B54219D22C46E94354F8043B77189847B5
:1002D000B442C7F380070FD22FB1236805F1080499
:1002E0009847B44208D2254655F8042B90476068D9
:1002F0002C1D8047B442F6D31C4D1D4E01F090FDDD
:10030000B5421AD22C46EF4354F8043B06EB070ED5
:10031000CEF380079847B4420FD22FB1226805F17F
:1003200008049047B44208D2254655F8040B80478C
:1003300061682C1D8847B442F6D3FFF731BF00BF78
:10034000000800200000002000040020000400201D
:100350000008002000080020882100080008002074
:10036000D80D0020880100088801000888010008D5
:1003700088010008AFF30080AFF30080AFF3008086
:10038000FEE700BFAFF30080AFF30080AFF3008063
:1003900000F02EFA00DF00BFAFF30080AFF3008063
:1003A000EFF30983203383F30988002383F3118853
:1003B000704700BFAFF30080AFF30080AFF3008061
:1003C0000A4B002210B59A60094A07201021DA6012
:1003D00000F096F80A204FF4007100F091F80B201D
:1003E0008021BDE8104000F08BB800BF00ED00E0B8
:1003F0000000FA05AFF30080AFF30080AFF3008098
:10040000202383F311881648436813F4006316D041
:10041000EFF30983203B83F30988124A91694FF077
:100420008070D86171B11068D26981689268914218
:1004300094BF002201227AB10B499961704783F37E
:10044000118870471068D26981689268914234BF00
:1004500000220122002AEFD1044A9A61704700BFAE
:1004600000ED00E008090020910300089403000853
:1004700010B5202383F3118800F09AF8002383F34A
:100480001188BDE81040FFF7BBBF00BFAFF300808D
:100490002DE9F04FC1F80CD0D0F80CD0BDE8F08FAA
:1004A000002383F311882846A04700F051FA7047D3
:1004B000F0B484080E4BC03400F0030253F82470EB
:1004C000D500FF264209AE4027EA060611FA05F5D7
:1004D00000F01F0002F16007012111FA00F02E4325
:1004E00043F8246043F8270043F82200F0BC70472B
:1004F00000E100E0AFF30080AFF30080AFF30080D5
:1005000030B48508084BAA1D00F0030053F82250B0
:10051000C000FF24844025EA040411FA00F00443DB
:1005200043F8224030BC704700ED00E0AFF300809C
:100530000248034AC3699A61FEE700BF0809002028
:10054000F01E0008AFF30080AFF30080AFF300802F
:1005500010B582B0FFF734FF00F0C2F800F050F899
:1005600000F08EFB00F0C4FB40210B4800F060F966
:100570000A490122C8610277002383F3118862B619
:10058000074CC96907488C611C46B021064B009492
:1005900000F096F902B010BD000800200809002004
:1005A000F81E00084808002031050008AFF300805D
:1005B000114B9A69002A70B501DD013A9A61DA6936
:1005C0000E4C116A2368481C1062E168481CA34263
:1005D000E0600FD09D68013D9D605DB926461968B9
:1005E000DA681869DD604E6021609047236898687A
:1005F0000028F4D070BD00BF08090020F8080020D2
:10060000044B4FF0FF3000225B601B609860DA60A3
:10061000704700BFF8080020AFF30080AFF3008000
:1006200070B40C4D03612C68C260A668B14204D955
:100630002468891BA6688E42FAD363680460AC42C2
:10064000436018606060816002D0A068411AA160B8
:1006500070BC7047F8080020AFF30080AFF3008053
:100660000368074A934203D09968826889189960A1
:1006700042681360016800234A60C360704700BF8E
:10068000F8080020AFF30080AFF30080AFF30080E4
:10069000037F0D2B11D8DFE803F020101007100B9B
:1006A000101010101010100B416A8B685A1C8A60D1
:1006B000416803680B60026851604FF0FF3242628C
:1006C000064B8168002202771B689A689142FBD929
:1006D000596803604160086058607047080900204D
:1006E000044B002014225B601B6098609A615B6180
:1006F0001B61704708090020AFF30080AFF3008052
:100700000022064B816802771B689A688A42FBD2F6
:10071000596803604160086058607047080900200C
:10072000084BD96930B408771A68142014689861A6
:100730000125104663601C60DA61157730BCFFF755
:10074000A7BE00BF08090020AFF30080AFF3008010
:1007500030B5B1F1FF3F87B0054611D00A4C0B4AC6
:10076000E36901A8FFF75CFF2846FFF7D9FF049B68
:1007700013B101A8FFF774FFE069406A07B030BD0C
:10078000FFF7CEFF004CF7E70809002091060008AC
:1007900030B4154C8568E269034690685962854219
:1007A0000CD800221A772468A0688542FBD96168BA
:1007B0001C6059600B60636030BC70470025157782
:1007C000214609688D68A842FBD9486811605060CD
:1007D0004A6001210260E36118461977142311462B
:1007E000A36130BCFFF754BE08090020AFF30080BE
:1007F0000D4A1068D16970B405688C6815601426BC
:10080000966113466A60D0610122027700220A775E
:100810001B689A68A242FBD25A680B604A6011605A
:10082000596070BCFFF734BE08090020AFF30080A8
:10083000F0B400220C4C4277012502230377857720
:100840006569016400F12C0600F1280704618160EC
:100850004561C2636061826302628261286187626E
:100860000663C662F0BC704708090020AFF3008041
:100870002439F0B44718C760435004990E4B79608F
:100880003B6200250D4E45770221012701778777CE
:100890007369026400F12C0100F12807066182608F
:1008A0004361C56370618563056285611861876214
:1008B0000163C162F0BC7047A10400080809002070
:1008C00010B59C4682B0202383F31188049C6346B4
:1008D0000094FFF7CDFF00210446FFF759FF0023E6
:1008E00083F31188204602B010BD00BFAFF3008033
:1008F00008B50146202383F311880620FFF728FF5F
:10090000002383F3118808BDAFF30080AFF30080AC
:100910000E4B70B5DC692546606255F8280FA84279
:1009200006D00168A162FFF7EBFEA06AA842F8D1E9
:10093000607F10F0030F04D1636921691961226996
:1009400053610E20BDE87040FFF7EABE08090020A1
:10095000202383F31188FFF7DBBF00BFAFF30080D4
:100960000023406000608360704700BFAFF30080E9
:1009700008B5826B037F41EA0202082B82630CD028
:10098000092B00D008BD436A02EA03018B42F9D16A
:10099000FFF7B6FE0022426208BD436A1A42F7D151
:1009A00008BD00BFAFF30080AFF30080AFF300805D
:1009B00070B50468844205460E4608D0A168606898
:1009C00046EA0101FFF7D4FF2468AC42F6D170BDBE
:1009D00010B4034619B94FF0FF3010BC7047064CF5
:1009E000E2695062446810600D2054605A602260D1
:1009F00010BCFFF7ADBE00BF08090020AFF30080B8
:100A000010B48A18002440600060846041618161F4
:100A1000C1600261C36110BC704700BFAFF30080CA
:100A2000426908B503468069824219D0986801304E
:100A3000986002F8011B19695A618A4228BFDA6876
:100A4000186828BF5A61984208D002681A6053603B
:100A5000FFF756FE00234362184608BD002008BD7C
:100A600098680028E3D06FF0030008BDAFF3008062
:100A700070B5202304460D4683F31188C36903B182
:100A80009847A6684EB920462946FFF7A1FF0028DF
:100A9000F7DA334683F3118870BDA3692269013EFA
:100AA000A66013F8010B9342A36124BFE368A3611E
:100AB000002383F3118870BDAFF30080AFF3008093
:100AC0002DE9F0471D4604460E469146D0F81C809D
:100AD000202383F311880027B8F1000F01D02046AE
:100AE000C047D4F808A0BAF1000F0BD12046294620
:100AF000FFF76EFF0028F4D0534683F31188384681
:100B0000BDE8F087A3690AF1FF31A16013F8010B7A
:100B1000F0552269A361934224BFE368A3610023D7
:100B200083F3118801374F45E9D0202383F31188DF
:100B3000D2E700BFAFF30080AFF30080AFF30080D7
:100B400010B48C1840600060826041618161C160B6
:100B50000461C36110BC7047AFF30080AFF3008045
:100B6000F8B504460D461646202383F31188A7687E
:100B70004FB920463146FFF72BFF0028F7DA3B46F6
:100B800083F31188F8BD6369013FA76003F8015B37
:100B900022696361934224BFE3686361E3690BB137
:100BA00020469847002383F311881846F8BD00BFFC
:100BB00082694169914210B5034617D081684C1C87
:100BC0009C6012F8014B18699A61824228BFDA686A
:100BD000186828BF9A61984206D002681A6053606C
:100BE000FFF78EFD00234362204610BD8168002977
:100BF000E5D06FF0020010BDAFF30080AFF30080CE
:100C00002DE9F0471E4604460D461746D0F81C90C5
:100C1000202383F311884FF00008D4F808A0BAF11C
:100C2000000F21D00AF1FF31A1606369287803F831
:100C3000010B22696361934224BFE3686361B9F1E8
:100C4000000F01D02046C847002383F31188013FDD
:100C500008F1010811D00135202383F31188D4F85D
:100C600008A0BAF1000FDDD120463146FFF7B0FEF3
:100C70000028D2D0534683F311884046BDE8F08760
:100C8000054B064A064823F00701064B116020F089
:100C900007021A60704700BFDF0D00202C090020FA
:100CA00000C0012028090020AFF30080AFF30080CE
:100CB000202383F31188094A09491368096807301A
:100CC00020F00700C91A88429DBF18181060184606
:100CD0000020002383F31188704700BF2C090020F7
:100CE00028090020AFF30080AFF30080AFF300804D
:100CF000044B0549002203F1100019609A60DA6084
:100D0000FFF72EBE30090020B10C0008AFF30080C1
:100D100010B500F0DDFA074800F0F2FE00F010F820
:100D200000F026F800F084F800F0E2F8BDE810408A
:100D300000F0EEBF00200008AFF30080AFF30080AA
:100D400000F07EBBAFF30080AFF30080AFF3008014
:100D500000230122027043608360C360036143612A
:100D60001830FFF7FDBD00BFAFF30080AFF3008088
:100D700000F0AEBCAFF30080AFF30080AFF30080B3
:100D80000121002301704360704700BFAFF3008072
:100D9000806BD0F1010038BF00207047AFF30080B6
:100DA0008069D0F1010038BF00207047AFF30080A8
:100DB0000246202383F3118800238068936083F325
:100DC00011887047AFF30080AFF30080AFF300806D
:100DD0001030FFF775BE00BFAFF30080AFF30080A7
:100DE00010304FF0FF33FFF76BBE00BFAFF3008052
:100DF0003030FFF705BF00BFAFF30080AFF30080D6
:100E000030304FF0FF33FFF7FBBE00BFAFF3008081
:100E10001030FFF72DBE00BFAFF30080AFF30080AE
:100E20003030FFF79DBE00BFAFF30080AFF300800E
:100E300000F076BDAFF30080AFF30080AFF3008029
:100E400070B50E4B0646044646F8043B6660002625
:100E5000A66001260B461546103004F15001102201
:100E60002673FFF7CDFD04F1300004F1600110227C
:100E70002B46BDE87040FFF763BE00BF001F0008AF
:100E800010B52023044683F3118800F089FD022366
:100E90002373002383F3118810BD00BFAFF30080DC
:100EA00070B50D468169044639B104F11000294638
:100EB000FFF7B6FD00280EDB70BD826842F0040328
:100EC00083600430FFF774FD04F110002946FFF73A
:100ED000A7FD0028F0DAA16841F08000A0600021A1
:100EE000201DBDE87040FFF763BD00BFAFF3008079
:100EF00000F0CEBDAFF30080AFF30080AFF3008011
:100F0000002301220270436083600C30FFF728BD8C
:100F10000748084A0368116810B53D24946013B16E
:100F2000406821409847BDE81040FFF769BA00BF0C
:100F30005009002000600240AFF30080AFF3008052
:100F40000848094A8368116810B54FF474649460C6
:100F500023B18909406801F03D019847BDE8104080
:100F6000FFF74EBA5009002000600240AFF3008046
:100F70000848094A0369116810B54FF47414946065
:100F800023B1090C406901F03D019847BDE81040CC
:100F9000FFF736BA5009002000600240AFF300802E
:100FA0000848094A8369116810B54FF07464946069
:100FB00023B1890DC06901F03D019847BDE810409B
:100FC000FFF71EBA5009002000600240AFF3008016
:100FD0000748084A036A516810B53D24D46013B12C
:100FE000406A21409847BDE81040FFF709BA00BFAA
:100FF0005009002000600240AFF30080AFF3008092
:101000000848094A836A516810B54FF47464D46083
:1010100023B18909C06A01F03D019847BDE810403D
:10102000FFF7EEB95009002000600240AFF30080E6
:101030000848094A036B516810B54FF47414D46022
:1010400023B1090C406B01F03D019847BDE8104009
:10105000FFF7D6B95009002000600240AFF30080CE
:101060000848094A836B516810B54FF07464D46026
:1010700023B1890DC06B01F03D019847BDE81040D8
:10108000FFF7BEB95009002000600240AFF30080B6
:101090000748084A036C116810B53D24946013B1E9
:1010A000406C21409847BDE81040FFF7A9B900BF48
:1010B0005009002000640240AFF30080AFF30080CD
:1010C0000848094A836C116810B54FF47464946041
:1010D00023B18909C06C01F03D019847BDE810407B
:1010E000FFF78EB95009002000640240AFF3008082
:1010F0000848094A036D116810B54FF474149460E0
:1011000023B1090C406D01F03D019847BDE8104046
:10111000FFF776B95009002000640240AFF3008069
:101120000848094A836D116810B54FF074649460E3
:1011300023B1890DC06D01F03D019847BDE8104015
:10114000FFF75EB95009002000640240AFF3008051
:101150000748084A036E516810B53D24D46013B1A6
:10116000406E21409847BDE81040FFF749B900BFE5
:101170005009002000640240AFF30080AFF300800C
:101180000848094A836E516810B54FF47464D460FE
:1011900023B18909C06E01F03D019847BDE81040B8
:1011A000FFF72EB95009002000640240AFF3008021
:1011B0000848094A036F516810B54FF47414D4609D
:1011C00023B1090C406F01F03D019847BDE8104084
:1011D000FFF716B95009002000640240AFF3008009
:1011E0000848094A836F516810B54FF07464D460A1
:1011F00023B1890DC06F01F03D019847BDE8104053
:10120000FFF7FEB85009002000640240AFF30080F1
:101210002A492B4AD1F824C02A482DE9F00FD1F8E9
:1012200000A0D1F818800F6BCE6B8D6CD1F80C90AC
:10123000D1F854B0244C0023CAF80030C9F800306B
:10124000DFF888A0C8F80030CCF800303B6033608D
:101250000F6E2B60CE6E8D6FCBF80030CAF8003069
:101260003B60136033609360136193611362936218
:1012700013639363136493642B60D1F88480D1F873
:1012800090C0D1F89C70D1F8A860D1F8B450C8F8DB
:1012900000304FF0FF31CCF8003013653B609365B0
:1012A0003360136693662B601367A1609367E160F8
:1012B0008160C160BDE8F00F704700BF301F0008BB
:1012C000500900200064024000600240D009002064
:1012D000234B2449244830B41D69244C002245F096
:1012E00001051D611A615D6945F001055D615A6185
:1012F0009D6945F001059D619A611D6A1D621A6232
:101300005D6A45F001055D62194D5A624D60072521
:101310008A600D60216841F001012160196C41F083
:1013200080511964016841F480710160186F00F404
:101330004071B1F5007F03D04FF4803018671A6711
:10134000074B1A6F12F4004F07D1196F41F4007266
:101350001A67186F40F40041196730BCFFF758BF97
:101360000038024010E000E000700040001000E093
:101370003F900200AFF30080AFF30080AFF3008036
:10138000294B2A4A4FF080504FF4804110641A468E
:101390001960516811F4804FFBD02449086840F06F
:1013A00001030B600B68214A13F0020FFAD010689A
:1013B00040F48031116011460B681C4A13F4003F61
:1013C000FAD0506F40F00101516711464B6F174A38
:1013D00013F0020FFAD0164B5360106840F0807182
:1013E000116011460868114A10F0007FFAD0916828
:1013F000104841EA00031049936040F2057008600C
:10140000936843F0020191609368084903F00C0C63
:10141000BCF1080FF8D14A6C42F480434B64486E2B
:1014200040F480424A667047007000400038024035
:101430000854400700940838003C0240AFF3008095
:101440002DE9F041144B154E154D164F164C002248
:101450005A603046FFF77CFC14481549B0622846B4
:101460003163F762FFF774FC124A1349AA62A7F1CD
:1014700018032046EB622963FFF76AFC0F48104B04
:10148000A062A7F1240212205021E2622363BDE88A
:10149000F041FFF70DB800BF00230140D409002040
:1014A000080A0020C01F00083C0A0020002001405C
:1014B000172C020000210140172C020200220140DB
:1014C000172C0204AFF30080AFF30080AFF300806D
:1014D000C16A0A6810B4146824F001031360136829
:1014E00013F00103FBD10C7A826A49683D20A040C9
:1014F0000860012053609360906010BC704700BF8B
:10150000504B1A68002112F0200F10B5196005D059
:101510004D4CE16A0A685068002864D14B4B18684A
:10152000002210F0200F1A6005D0494CE26A1068C2
:101530004168002932D1474B1868002210F0200F73
:101540001A6027D0444CE26A1068416811B32369DD
:1015500003B32046FFF7BCFF2169CB684BB10520E0
:10156000207001212046984794F800C0BCF1050F77
:101570005ED000222261202383F31188606930B19C
:10158000354B4FF0FF3141625A61FFF7B9F8002344
:1015900083F31188BDE81040FEF732BF2369002BAA
:1015A000C9D02046FFF794FF2169CB684BB10520D5
:1015B000207001212046984794F800C0BCF1050F27
:1015C0003CD000222261202383F31188606930B16E
:1015D0001F4B4FF0FF3141625A61FFF791F8002332
:1015E00083F31188A7E72369002B97D02046FFF7E4
:1015F0006FFF2069C3684BB105220121227020468C
:10160000984794F800C0BCF1050F14D00022226165
:10161000202383F31188606930B10B4B4FF0FF3109
:1016200041625A61FFF76CF8002383F3118875E774
:10163000022222709DE702212170E7E70222227038
:10164000BFE700BF00200140D40900200021014075
:10165000080A0020002201403C0A0020AFF300806D
:1016600070B5194D2B69188A9C8904404FF6E072B9
:1016700014F0020F1A8222D114F0040F1AD114F0C0
:10168000080F12D114F0100F0AD114F0010F03D07B
:1016900069680D488B689847BDE87040FEF7B0BE9A
:1016A0006A680948916A8847EFE76B6806481A6AD2
:1016B0009047E7E7696804488B699847DFE76A68FD
:1016C000284611698847D7E7700A0020AFF30080E9
:1016D00010B5034C2046FFF753FB024B236110BDAE
:1016E000700A002000080040AFF30080AFF30080D4
:1016F000034B998988B240F080029A81704700BFFD
:1017000000100140AFF30080AFF30080AFF3008022
:10171000034B998988B240F080029A81704700BFDC
:1017200000440040AFF30080AFF30080AFF30080CF
:10173000034B998988B240F080029A81704700BFBC
:1017400000480040AFF30080AFF30080AFF30080AB
:10175000034B998988B240F080029A81704700BF9C
:1017600000140140AFF30080AFF30080AFF30080BE
:101770002DE9F041066FB7893488B6F80480A4B229
:1017800014F00F0F0546BFB220D014F0080018BFA8
:10179000802014F0010F18BF40F0200014F0020F59
:1017A00018BF40F0400014F0040F18BF40F48070E0
:1017B000202383F31188AB6843EA0002AA60281D46
:1017C0000021FFF7F5F8002383F3118814F4807FDC
:1017D00033D114F0200F24D117F0800F02D014F071
:1017E000800F40D114F0400F19D0202383F31188CB
:1017F000AB6843F01000A8600021281DFFF7D8F85F
:10180000002383F311884FF6BF7207EA0201B1810A
:10181000B6F800C02CF040031804020C3280BDE87A
:10182000F081202383F3118828465FFA88F1FFF7BF
:1018300037FB002383F31188CEE7202383F311883D
:10184000A96841F40073AB60281D0021FFF7B0F8D0
:10185000002383F31188B6F800C02CF480700204D2
:10186000110C3180B5E7202383F3118805F1300096
:10187000FFF79EF9002804DBB080002383F3118872
:10188000B0E7A96841F00803281DAB600021FFF70D
:101890008FF827F0C00040F04002B281EDE700BFB2
:1018A00010B50348FFF764FFBDE81040FEF7A8BD80
:1018B000840A0020AFF30080AFF30080AFF3008014
:1018C00010B50348FFF754FFBDE81040FEF798BD80
:1018D000F80A0020AFF30080AFF30080AFF3008080
:1018E00010B50348FFF744FFBDE81040FEF788BD80
:1018F0006C0B0020AFF30080AFF30080AFF30080EB
:1019000010B50348FFF734FFBDE81040FEF778BD7F
:10191000E00B0020AFF30080AFF30080AFF3008056
:10192000F8B5104F104A114E114D124C3846002197
:10193000FFF786FA104B114A3B6730460021FFF74C
:101940007FFA0F490F4A316728460021FFF778FADE
:101950000D480E4A286700212046FFF771FA0C4B0C
:101960002367F8BD840A0020F1160008F80A002059
:101970006C0B0020E00B0020001001401117000844
:10198000004400403117000800480040511700088B
:1019900000140140AFF30080AFF30080AFF300808C
:1019A00038B5037B314C002918BF0C46012B054686
:1019B00022D02B6F2E4A934234D002F5806C6345BF
:1019C00030D020682B4AB2FBF0FCA3F808C0A288F4
:1019D000B4F806C0218942F4045040F02C024CF0C7
:1019E000400041F0010C00219A811882A3F814C034
:1019F00019801A889B8838BD1F4988422CD01F4AFD
:101A0000904215D01E4A90421CD01E488542D0D12B
:101A10001D4B596C41F020024720C0215A64FEF74B
:101A200047FDC6E722681949B1FBF2F01881CEE7FD
:101A3000154B196C41F400322620C0211A64FEF7C0
:101A400037FDB6E7104B196C41F480222720C021E6
:101A50001A64FEF72DFDACE70B4B596C41F01002F8
:101A60002520C0215A64FEF723FDCEE7F01F0008B1
:101A70000010014080DE8002840A0020F80A002065
:101A80006C0B0020E00B00200038024000BD010577
:101A900070B51249124D134C134E4FF0FF3CA1F894
:101AA00000C02846FFF72CFA1048114AE86106F1F9
:101AB00024032046AA6230322E626B62EA62FFF78C
:101AC0001FFA0C4B0C49A362A6F13C003033303EA8
:101AD000E16120626662E36270BD00BF540C0020C9
:101AE000580C0020880C0020901F00080030014096
:101AF000160001061600010000380040AFF3008018
:101B00002DE9F007DFF8E8A1DFF8E881DAF8309096
:101B1000DFF8E4C16F4F704E704D714C7149724ADD
:101B2000724B6FEA59296FEA4929CAF83090DAF8FE
:101B300050906FEA59296FEA4929CAF85090D0F8B5
:101B40000090C8F80090D0F80490C8F80490D0F83D
:101B50000890C8F80890D0F80C90C8F80C90D0F80D
:101B60001090C8F81490D0F81490C8F82090D0F8CD
:101B70001890C8F82490D0F81C80CCF80080D0F8D9
:101B80002080CCF80480D0F82480CCF80880D0F8ED
:101B90002880CCF80C80D0F82C80CCF81480D0F8B9
:101BA0003080CCF82080D0F83480CCF82480D0F875
:101BB00038C0C7F800C0D0F83CC0C7F804C0D0F89F
:101BC00040C0C7F808C0D0F844C0C7F80CC0D0F86F
:101BD00048C0C7F814C0D0F84CC0C7F820C0D0F82F
:101BE00050C0C7F824C0476D3760876D7760C76DF8
:101BF000B760076EF760476E7761876E3762C76EB2
:101C00007762066F2E60466F6E60866FAE60C66F3D
:101C1000EE60D0F880606E61D0F884602E62D0F8FB
:101C200088606E62D0F88C502560D0F89050656066
:101C3000D0F89450A560D0F89850E560D0F89C504A
:101C40006561D0F8A0502562D0F8A4506562D0F844
:101C5000A8400C60D0F8AC404C60D0F8B0408C602C
:101C6000D0F8B440CC60D0F8B8404C61D0F8BC405B
:101C70000C62D0F8C0404C62D0F8C4101160D0F8AB
:101C8000C8105160D0F8CC109160D0F8D010D1605D
:101C9000D0F8D4105161D0F8D8101162D0F8DC100F
:101CA0005162D0F8E0201A60D0F8E4105960D0F802
:101CB000E8209A60D0F8EC10D960D0F8F0205A6192
:101CC000D0F8F4101962D0F8F8205A62BDE8F00795
:101CD000704700BF00080240000C024000100240A4
:101CE0000014024000180240001C02400020024084
:101CF000003802400000024000040240AFF30080C0
:101D0000FFF73EBBAFF30080AFF30080AFF300807E
:101D1000704700BFAFF30080AFF30080AFF30080E7
:101D20002DE9F0433548364C85B00021FFF7A8F87F
:101D3000002734483449019748224FF0FF33029777
:101D40000397FEF75DFF4FF001080326C1462069A7
:101D500010F0010F01D10199C9B1226912F0020FEF
:101D600002D1029B002B39D0256915F0040F01D157
:101D7000039B33B3256915F00805E8D1A7B12069A5
:101D8000012710F0010FE8D101990029E5D11322B4
:101D90001C481E494FF0FF33FEF732FF002EC4BF30
:101DA000CDF80490013ED8E71122164818494FF0AB
:101DB000FF33FEF725FFB8F1010F1CD14746A846B7
:101DC000C5E713220F4811494FF0FF33FEF718FF04
:101DD000002EC4BFCDF80C90013ECBE7132209487A
:101DE0000A494FF0FF33FEF70BFF002EC4BFCDF8BA
:101DF0000890013EB8E7B846A9E700BFF80A0020FE
:101E0000000C0240280B0020002100084C21000893
:101E100060210008AFF30080AFF30080AFF30080D3
:101E200070B5284B284C0FCB86B002AD2E4607C6A6
:101E30001A0C33808DF81620FEF76AFFFEF788FB38
:101E400022480021FFF71CF821480021FFF718F86D
:101E500020480021FFF714F8002200921E481F4B73
:101E60004FF490714032FEF72BFD4FF4805E48F244
:101E70000001A4F81AE04FF4FA706183FEF738FD10
:101E80004FF4805648F2000C29460E2226834FF06C
:101E9000FF33A4F818C01248FEF7B2FE29460E22FE
:101EA0004FF0FF330F48FEF7ABFE29460E224FF0EE
:101EB000FF330D48FEF7A4FE4FF4FA70FEF718FD4D
:101EC000D3E700BF74210008000C0240840A002000
:101ED0006C0B0020E00B0020B80C0020211D000836
:101EE000B40A00209C0B0020100C0020AFF30080EF
:101EF00069646C65000000006D61696E000000009F
:101F0000010E0008E10D0008910D0008A10D000868
:101F1000210E0008110E0008F10D0008D10D000877
:101F2000B10D0008000000000000000000000000EB
:101F3000106002400860024000000B002860024070
:101F40000860024006010C00406002400860024048
:101F500010020D00586002400860024016030E0097
:101F6000706002400C60024000040F008860024074
:101F70000C60024006051000A06002400C600240A8
:101F800010061100B86002400C60024016072F00D6
:101F900010640240086402400008380028640240CF
:101FA00008640240060939004064024008640240A7
:101FB000100A3A005864024008640240160B3B00C5
:101FC000706402400C640240000C3C0088640240D3
:101FD0000C640240060D4400A06402400C64024000
:101FE000100E4500B86402400C640240160F460013
:101FF000009600000000004000000000000000000B
:10200000A000200000000000FFFFFFFF540001645B
:10201000FFFFFFFF0077565500AA0A008020A800A6
:1020200040020000FFFFFFFF15455155FFFFFFFF76
:10203000000000774077000000A0000000000000D2
:10204000FFFFFFFF54154554FFFFFFFF000000E8AE
:10205000000606000000005500000000FFFFFFFF23
:1020600055505500CF0F0000000000000000000098
:102070000000000000000000FFFFFFFF1055555555
:10208000FFFFFFFF00000000000000000000000054
:1020900000000000FFFFFFFFFFFFFFFFFFFFFFFF4C
:1020A0000000000000000000000000000000000030
:1020B000FFFFFFFFFFFFFFFFFFFFFFFF000000002C
:1020C000000000000000000000000000FFFFFFFF14
:1020D00050555555FFFFFFFF0000000000000000B5
:1020E0000000000000000000FFFFFFFFFFFFFFFFF8
:1020F000FFFFFFFF000000000000000000000000E4
:10210000204669726D7761726520706572206C651A
:102110006767657265206C652075736369746520F7
:10212000646920756E206170726963616E63656CAD
:102130006C692E2044617669646520546174656F12
:102140002C20323031320A0D0000000046616374E9
:102150006F72792044657374726F7965640A0D003B
:10216000546F7765722044657374726F7965640A81
:102170000D00000048656C6C6F20576F726C642115
:042180000A0D000044
:04000005080001905E
:00000001FF
