:020000040800F2
:100000000004002051030008200500082005000816
:10001000200500082005000820050008200500082C
:1000200020050008200500082005000841050008FB
:10003000200500082005000820050008110600081A
:1000400020050008200500082005000820050008FC
:1000500020050008200500082005000820050008EC
:10006000200500082005000820050008E11300080D
:10007000111400084114000871140008A1140008AC
:10008000D114000801150008D11900082005000846
:1000900020050008200500082005000820050008AC
:1000A000200500082005000820050008200500089C
:1000B0002005000820050008311B00082005000865
:1000C000200500082005000820050008200500087C
:1000D00020050008711D0008911D0008B11D0008D1
:1000E000200500082005000820050008200500085C
:1000F000200500082005000820050008311500082B
:10010000200500082005000820050008200500083B
:10011000200500082005000820050008200500082B
:100120006115000891150008C1150008F1150008B7
:1001300021160008200500082005000820050008F9
:1001400020050008200500082005000820050008FB
:100150005116000881160008B1160008D11D0008CC
:1001600020050008200500082005000820050008DB
:1001700020050008200500082005000820050008CB
:0801800020050008200500081D
:1001900040F60003C2F2000370B41D6810F8013B82
:1001A000EC181A46647804F00304012C11F8014B92
:1001B00008BF03F120022E192346767806F00306C5
:1001C000012E08BF04F12003D21A01D1002BE5D182
:1001D000104670BC704700BF000000000000000027
:1001E000C9B2F0B4002950D010F0030F10D003783A
:1001F000002B79D0994246D0431C05E013F8012B1F
:10020000002A3FD091423ED013F0030F1846F5D19B
:10021000036841EA01270646A3F1013247EA07478E
:1002200022EA030212F0803F1DD187EA0303A3F103
:10023000013222EA030313F0803F14D1043002E0BC
:1002400012F0803F0FD1064650F8043BA3F1013570
:1002500087EA030225EA0303A2F1013413F0803F89
:1002600024EA0202ECD033783046002B3CD099428D
:1002700009D0731C01E0914205D0184613F8012BF8
:10028000002AF8D11046F0BC704710F0030F0CD0D4
:100290000378002BF7D0431C03E013F8012B002A4E
:1002A000F1D013F0030F1846F7D102680346A2F10C
:1002B000013121EA020212F0803F0AD104300346E4
:1002C00050F8042BA2F1013121EA020212F0803F22
:1002D000F5D01A781846002AD5D00133184613F8FD
:1002E000012B002AFAD1CEE71846CCE70000000027
:1002F000F0B40646047874B10F780546064657B147
:10030000BC4218BF0A4602D108E09C4206D012F84F
:10031000013F002BF9D1301AF0BC70476C786E1C8D
:10032000002CF8D03546EBE700000000000000008C
:10033000704700BFAFF30080AFF30080AFF30080E1
:10034000FEE700BFAFF30080AFF30080AFF30080A3
:1003500072B6634C84F30988022383F31488BFF3D5
:100360006F8F01F035FF5F4A5F48824217D2134614
:100370004FF0553143F8041BD64385198342C5F32A
:1003800080050CD225B1196002F10803834206D220
:100390001A4642F8041B5960131D8342F8D3534A8E
:1003A000A24217D213464FF0553143F8041BD543F0
:1003B0006019A342C0F380000CD220B1196002F191
:1003C0000803A34206D21E4646F8041B5960331D9B
:1003D000A342F8D34649474CA14222D2464802469E
:1003E0000B4652F8046B43F8046BCD4304EB050C49
:1003F000A342CCF3800514D23DB116681E6001F112
:100400000803A34200F108020BD21146184651F826
:10041000045B40F8045B52685A60031D0A1DA34246
:10042000F3D3364A3648824216D21346002143F8A7
:10043000041BD64384198342C4F380040CD224B134
:10044000196002F10803834206D21A4642F8041BDF
:100450005960131D8342F8D32A4D2B4EFFF768FFD6
:10046000B54219D22C46E94354F8043B7718984713
:10047000B442C7F380070FD22FB1236805F10804F7
:100480009847B44208D2254655F8042B9047606837
:100490002C1D8047B442F6D31C4D1D4E02F098FB34
:1004A000B5421AD22C46EF4354F8043B06EB070E34
:1004B000CEF380079847B4420FD22FB1226805F1DE
:1004C00008049047B44208D2254655F8040B8047EB
:1004D00061682C1D8847B442F6D3FFF731BF00BFD7
:1004E000000800200000002000040020000400207C
:1004F000000800201C080020F83200082008002016
:10050000000E00208801000888010008880100080A
:1005100088010008AFF30080AFF30080AFF30080E4
:10052000FEE700BFAFF30080AFF30080AFF30080C1
:1005300000F02EFA00DF00BFAFF30080AFF30080C1
:10054000EFF30983203383F30988002383F31188B1
:10055000704700BFAFF30080AFF30080AFF30080BF
:100560000A4B002210B59A60094A07201021DA6070
:1005700000F096F80A204FF4007100F091F80B207B
:100580008021BDE8104000F08BB800BF00ED00E016
:100590000000FA05AFF30080AFF30080AFF30080F6
:1005A000202383F311881648436813F4006316D0A0
:1005B000EFF30983203B83F30988124A91694FF0D6
:1005C0008070D86171B11068D26981689268914277
:1005D00094BF002201227AB10B499961704783F3DD
:1005E000118870471068D26981689268914234BF5F
:1005F00000220122002AEFD1044A9A61704700BF0D
:1006000000ED00E02809002031050008340500084D
:1006100010B5202383F3118800F09AF8002383F3A8
:100620001188BDE81040FFF7BBBF00BFAFF30080EB
:100630002DE9F04FC1F80CD0D0F80CD0BDE8F08F08
:10064000002383F311882846A04700F061FA704721
:10065000F0B484080E4BC03400F0030253F8247049
:10066000D500FF264209AE4027EA060611FA05F535
:1006700000F01F0002F16007012111FA00F02E4383
:1006800043F8246043F8270043F82200F0BC704789
:1006900000E100E0AFF30080AFF30080AFF3008033
:1006A00030B48508084BAA1D00F0030053F822500F
:1006B000C000FF24844025EA040411FA00F004433A
:1006C00043F8224030BC704700ED00E0AFF30080FB
:1006D0000248034AC3699A61FEE700BF2809002067
:1006E000E02D0008AFF30080AFF30080AFF300808F
:1006F00010B582B0FFF734FF00F0C2F800F050F8F8
:1007000000F0DEFC00F014FD40210B4800F070F911
:100710000A490122C8610277002383F3118862B677
:10072000074CC96907488C611C46B021064B0094F0
:1007300000F0A6F902B010BD200800202809002012
:10074000E82D000868080020D1060008AFF30080FB
:10075000114B9A69002A70B501DD013A9A61DA6994
:100760000E4C116A2368481C1062E168481CA342C1
:10077000E0600FD09D68013D9D605DB92646196817
:10078000DA681869DD604E602160904723689868D8
:100790000028F4D070BD00BF2809002018090020EF
:1007A000044B4FF0FF3000225B601B609860DA6002
:1007B000704700BF18090020AFF30080AFF300803E
:1007C00070B40C4D03612C68C260A668B14204D9B4
:1007D0002468891BA6688E42FAD363680460AC4221
:1007E000436018606060816002D0A068411AA16017
:1007F00070BC704718090020AFF30080AFF3008091
:100800000368074A934203D09968826889189960FF
:1008100042681360016800234A60C360704700BFEC
:1008200018090020AFF30080AFF30080AFF3008021
:10083000037F0D2B11D8DFE803F020101007100BF9
:10084000101010101010100B416A8B685A1C8A602F
:10085000416803680B60026851604FF0FF324262EA
:10086000064B8168002202771B689A689142FBD987
:10087000596803604160086058607047280900208B
:10088000044B002014225B601B6098609A615B61DE
:100890001B61704728090020AFF30080AFF3008090
:1008A0000022064B816802771B689A688A42FBD255
:1008B000596803604160086058607047280900204B
:1008C000084BD96930B408771A6814201468986105
:1008D0000125104663601C60DA61157730BCFFF7B4
:1008E000A7BE00BF28090020AFF30080AFF300804F
:1008F00030B5B1F1FF3F87B0054611D00A4C0B4A25
:10090000E36901A8FFF75CFF2846FFF7D9FF049BC6
:1009100013B101A8FFF774FFE069406A07B030BD6A
:10092000FFF7CEFF004CF7E7280900203108000848
:1009300030B4154C8568E269034690685962854277
:100940000CD800221A772468A0688542FBD9616818
:100950001C6059600B60636030BC704700251577E0
:10096000214609688D68A842FBD94868116050602B
:100970004A6001210260E361184619771423114689
:10098000A36130BCFFF754BE28090020AFF30080FC
:100990000D4A1068D16970B405688C68156014261A
:1009A000966113466A60D0610122027700220A77BD
:1009B0001B689A68A242FBD25A680B604A601160B9
:1009C000596070BCFFF734BE28090020AFF30080E7
:1009D000044AD069116883688A689A4200D87047CF
:1009E000FFF7D6BF28090020AFF30080AFF30080E7
:1009F000F0B400220C4C427701250223037785775F
:100A00006569016400F12C0600F12807046181602A
:100A10004561C263606182630262826128618762AC
:100A20000663C662F0BC704728090020AFF300805F
:100A30002439F0B44718C760435004990E4B7960CD
:100A40003B6200250D4E457702210127017787770C
:100A50007369026400F12C0100F1280706618260CD
:100A60004361C56370618563056285611861876252
:100A70000163C162F0BC70474106000828090020EC
:100A800010B59C4682B0202383F31188049C6346F2
:100A90000094FFF7CDFF00210446FFF749FF002334
:100AA00083F31188204602B010BD00BFAFF3008071
:100AB00008B50146202383F311880620FFF718FFAD
:100AC000002383F3118808BDAFF30080AFF30080EB
:100AD0000E4B70B5DC692546606255F8280FA842B8
:100AE00006D00168A162FFF7DBFEA06AA842F8D138
:100AF000607F10F0030F04D16369216919612269D5
:100B000053610E20BDE87040FFF7DABE28090020CF
:100B1000202383F31188FFF7DBBF00BFAFF3008012
:100B200070B582B00C4615461E4600F011FBA8B108
:100B3000202383F311882146069C33462A460094DD
:100B4000FFF776FF0123437700210446FFF7F0FE0D
:100B5000002383F31188204602B070BD0446FAE7F3
:100B60000023406000608360704700BFAFF30080E7
:100B70002DE9F0412E4B05468068DC69002850D0F5
:100B8000A26881688A4206D9037F8260042B30D034
:100B9000052B1BD093B12B461B689D4203D0986850
:100BA000A1688842F8D25A68236004206260146009
:100BB0005C606562BDE8F041FFF782BE4368026891
:100BC0001A6001684B60FFF76BFEE4E74168076855
:100BD000466A0F600768334679601B689E4202D000
:100BE00099689142F9D25A68036042601060586077
:100BF000D1E741680768466A0F6007683346796045
:100C00001B689E4202D099689142F9D25A680360EB
:100C1000426010605860B068A26883689342B3D3A2
:100C2000B9E7E36BAC60EB60E563BDE8F08100BF62
:100C300028090020AFF30080AFF30080AFF30080FD
:100C400008B5202383F31188FFF792FF002383F375
:100C5000118808BDAFF30080AFF30080AFF30080D0
:100C6000174AF8B5D269202383F31188D46B23681F
:100C7000E168A342D1631CD0176C49B1086888426F
:100C800003D08068874238BF0746C9680029F5D17C
:100C90001D68DE6B97601846256000216C60A360BC
:100CA000E660DC63FFF744FE002383F311882046EF
:100CB000F8BD0023A360002383F311882046F8BD0C
:100CC00028090020AFF30080AFF30080AFF300806D
:100CD00010B4202383F31188054C0368E4690B608A
:100CE000016000234C608A6083F3118810BC704758
:100CF00028090020AFF30080AFF30080AFF300803D
:100D0000202383F31188054AD3699A6B22EA0001F4
:100D10009963002383F3118810407047280900204D
:100D200008B5826B037F41EA0202082B82630CD074
:100D3000092B00D008BD436A02EA03018B42F9D1B6
:100D4000FFF7AEFD0022426208BD436A1A42F7D1A6
:100D500008BD00BFAFF30080AFF30080AFF30080A9
:100D600008B5202383F31188FFF7DAFFFFF730FE81
:100D7000002383F3118808BDAFF30080AFF3008038
:100D800070B50468844205460E4608D0A1686068C4
:100D900046EA0101FFF7C4FF2468AC42F6D170BDFA
:100DA00008B5202383F31188FFF7EAFFFFF710FE51
:100DB000002383F3118808BDAFF30080AFF30080F8
:100DC000124B70B5DE690446202383F31188B36BA0
:100DD00010EA03050ED121B92B4683F3118828466A
:100DE00070BD70620820FFF783FD00280ADBB36B3B
:100DF00004EA030523EA0500B063002383F31188A6
:100E0000284670BD2B4683F31188F9E72809002096
:100E100010B4034619B94FF0FF3010BC7047064CB0
:100E2000E2695062446810600D2054605A6022608C
:100E300010BCFFF75DBD00BF28090020AFF30080A4
:100E400010B48A18002440600060846041618161B0
:100E5000C1600261C36110BC704700BFAFF3008086
:100E6000426908B503468069824219D0986801300A
:100E7000986002F8011B19695A618A4228BFDA6832
:100E8000186828BF5A61984208D002681A605360F7
:100E9000FFF706FD00234362184608BD002008BD89
:100EA00098680028E3D06FF0030008BDAFF300801E
:100EB00070B5202304460D4683F31188C36903B13E
:100EC0009847A6684EB920462946FFF7A1FF00289B
:100ED000F7DA334683F3118870BDA3692269013EB6
:100EE000A66013F8010B9342A36124BFE368A361DA
:100EF000002383F3118870BDAFF30080AFF300804F
:100F00002DE9F0471D4604460E469146D0F81C8058
:100F1000202383F311880027B8F1000F01D0204669
:100F2000C047D4F808A0BAF1000F0BD120462946DB
:100F3000FFF76EFF0028F4D0534683F3118838463C
:100F4000BDE8F087A3690AF1FF31A16013F8010B36
:100F5000F0552269A361934224BFE368A361002393
:100F600083F3118801374F45E9D0202383F311889B
:100F7000D2E700BFAFF30080AFF30080AFF3008093
:100F800010B48C1840600060826041618161C16072
:100F90000461C36110BC7047AFF30080AFF3008001
:100FA000F8B504460D461646202383F31188A7683A
:100FB0004FB920463146FFF72BFF0028F7DA3B46B2
:100FC00083F31188F8BD6369013FA76003F8015BF3
:100FD00022696361934224BFE3686361E3690BB1F3
:100FE00020469847002383F311881846F8BD00BFB8
:100FF00082694169914210B5034617D081684C1C43
:101000009C6012F8014B18699A61824228BFDA6825
:10101000186828BF9A61984206D002681A60536027
:10102000FFF73EFC00234362204610BD8168002983
:10103000E5D06FF0020010BDAFF30080AFF3008089
:101040002DE9F0471E4604460D461746D0F81C9081
:10105000202383F311884FF00008D4F808A0BAF1D8
:10106000000F21D00AF1FF31A1606369287803F8ED
:10107000010B22696361934224BFE3686361B9F1A4
:10108000000F01D02046C847002383F31188013F99
:1010900008F1010811D00135202383F31188D4F819
:1010A00008A0BAF1000FDDD120463146FFF7B0FEAF
:1010B0000028D2D0534683F311884046BDE8F0871C
:1010C000054B064A064823F00701064B116020F045
:1010D00007021A60704700BF070E00204C0900206D
:1010E00000C0012048090020AFF30080AFF300806A
:1010F000202383F31188094A0949136809680730D6
:1011000020F00700C91A88429DBF181810601846C1
:101110000020002383F31188704700BF4C09002092
:1011200048090020AFF30080AFF30080AFF30080E8
:10113000044B0549002203F1100019609A60DA603F
:10114000FFF70EBD50090020F1100008AFF300803A
:10115000F8B5204C002818BF0446073104F11000F0
:1011600021F0070604F10805FFF76AFD00E01D46BF
:101170002B68F3B15A689642F9D806F108018A4201
:1011800014D36FF007005F18D3F800E0C6EB000C33
:101190000CEB020043F801E078602F605E601D46B2
:1011A00045F8084BFFF75CFD2846F8BD1A682A6031
:1011B000F5E7FFF755FD2568002DF5D006F108008D
:1011C000A84720B10460466000F10805ECE7054639
:1011D000EAE700BF50090020AFF30080AFF30080C2
:1011E00010B500F0DDFA074800F0F2FE00F010F84C
:1011F00000F026F800F084F800F0E2F8BDE81040B6
:1012000000F0EEBFF02E0008AFF30080AFF30080D7
:1012100000F07EBBAFF30080AFF30080AFF300803F
:1012200000230122027043608360C3600361436155
:101230001830FFF795BC00BFAFF30080AFF300801C
:1012400000F0AEBCAFF30080AFF30080AFF30080DE
:101250000121002301704360704700BFAFF300809D
:10126000806BD0F1010038BF00207047AFF30080E1
:101270008069D0F1010038BF00207047AFF30080D3
:101280000246202383F3118800238068936083F350
:1012900011887047AFF30080AFF30080AFF3008098
:1012A0001030FFF72DBE00BFAFF30080AFF300801A
:1012B00010304FF0FF33FFF723BE00BFAFF30080C5
:1012C0003030FFF7BDBE00BFAFF30080AFF300804A
:1012D00030304FF0FF33FFF7B3BE00BFAFF30080F5
:1012E0001030FFF7E5BD00BFAFF30080AFF3008023
:1012F0003030FFF755BE00BFAFF30080AFF3008082
:1013000000F076BDAFF30080AFF30080AFF3008054
:1013100070B50E4B0646044646F8043B6660002650
:10132000A66001260B461546103004F1500110222C
:101330002673FFF785FD04F1300004F160011022EF
:101340002B46BDE87040FFF71BBE00BFF02D000824
:1013500010B52023044683F3118800F089FD022391
:101360002373002383F3118810BD00BFAFF3008007
:1013700070B50D468169044639B104F11000294663
:10138000FFF76EFD00280EDB70BD826842F004039B
:1013900083600430FFF7F4FC04F110002946FFF7E6
:1013A0005FFD0028F0DAA16841F08000A060002114
:1013B000201DBDE87040FFF7E3BC00BFAFF3008025
:1013C00000F0CEBDAFF30080AFF30080AFF300803C
:1013D000002301220270436083600C30FFF7C0BB22
:1013E0000748084A0368116810B53D24946013B19A
:1013F000406821409847BDE81040FFF7D1B800BFD2
:101400007009002000600240AFF30080AFF300805D
:101410000848094A8368116810B54FF474649460F1
:1014200023B18909406801F03D019847BDE81040AB
:10143000FFF7B6B87009002000600240AFF30080EB
:101440000848094A0369116810B54FF47414946090
:1014500023B1090C406901F03D019847BDE81040F7
:10146000FFF79EB87009002000600240AFF30080D3
:101470000848094A8369116810B54FF07464946094
:1014800023B1890DC06901F03D019847BDE81040C6
:10149000FFF786B87009002000600240AFF30080BB
:1014A0000748084A036A516810B53D24D46013B157
:1014B000406A21409847BDE81040FFF771B800BF6F
:1014C0007009002000600240AFF30080AFF300809D
:1014D0000848094A836A516810B54FF47464D460AF
:1014E00023B18909C06A01F03D019847BDE8104069
:1014F000FFF756B87009002000600240AFF300808B
:101500000848094A036B516810B54FF47414D4604D
:1015100023B1090C406B01F03D019847BDE8104034
:10152000FFF73EB87009002000600240AFF3008072
:101530000848094A836B516810B54FF07464D46051
:1015400023B1890DC06B01F03D019847BDE8104003
:10155000FFF726B87009002000600240AFF300805A
:101560000748084A036C116810B53D24946013B114
:10157000406C21409847BDE81040FFF711B800BF0C
:101580007009002000640240AFF30080AFF30080D8
:101590000848094A836C116810B54FF4746494606C
:1015A00023B18909C06C01F03D019847BDE81040A6
:1015B000FEF7F6BF7009002000640240AFF3008020
:1015C0000848094A036D116810B54FF4741494600B
:1015D00023B1090C406D01F03D019847BDE8104072
:1015E000FEF7DEBF7009002000640240AFF3008008
:1015F0000848094A836D116810B54FF0746494600F
:1016000023B1890DC06D01F03D019847BDE8104040
:10161000FEF7C6BF7009002000640240AFF30080EF
:101620000748084A036E516810B53D24D46013B1D1
:10163000406E21409847BDE81040FEF7B1BF00BFA3
:101640007009002000640240AFF30080AFF3008017
:101650000848094A836E516810B54FF47464D46029
:1016600023B18909C06E01F03D019847BDE81040E3
:10167000FEF796BF7009002000640240AFF30080BF
:101680000848094A036F516810B54FF47414D460C8
:1016900023B1090C406F01F03D019847BDE81040AF
:1016A000FEF77EBF7009002000640240AFF30080A7
:1016B0000848094A836F516810B54FF07464D460CC
:1016C00023B1890DC06F01F03D019847BDE810407E
:1016D000FEF766BF7009002000640240AFF300808F
:1016E0002A492B4AD1F824C02A482DE9F00FD1F815
:1016F00000A0D1F818800F6BCE6B8D6CD1F80C90D8
:10170000D1F854B0244C0023CAF80030C9F8003096
:10171000DFF888A0C8F80030CCF800303B603360B8
:101720000F6E2B60CE6E8D6FCBF80030CAF8003094
:101730003B60136033609360136193611362936243
:1017400013639363136493642B60D1F88480D1F89E
:1017500090C0D1F89C70D1F8A860D1F8B450C8F806
:1017600000304FF0FF31CCF8003013653B609365DB
:101770003360136693662B601367A1609367E16023
:101780008160C160BDE8F00F704700BF202E0008E7
:10179000700900200064024000600240F00900204F
:1017A000234B2449244830B41D69244C002245F0C1
:1017B00001051D611A615D6945F001055D615A61B0
:1017C0009D6945F001059D619A611D6A1D621A625D
:1017D0005D6A45F001055D62194D5A624D6007254D
:1017E0008A600D60216841F001012160196C41F0AF
:1017F00080511964016841F480710160186F00F430
:101800004071B1F5007F03D04FF4803018671A673C
:10181000074B1A6F12F4004F07D1196F41F4007291
:101820001A67186F40F40041196730BCFFF758BFC2
:101830000038024010E000E000700040001000E0BE
:101840003F900200AFF30080AFF30080AFF3008061
:10185000294B2A4A4FF080504FF4804110641A46B9
:101860001960516811F4804FFBD02449086840F09A
:1018700001030B600B68214A13F0020FFAD01068C5
:1018800040F48031116011460B681C4A13F4003F8C
:10189000FAD0506F40F00101516711464B6F174A63
:1018A00013F0020FFAD0164B5360106840F08071AD
:1018B000116011460868114A10F0007FFAD0916853
:1018C000104841EA00031049936040F20570086037
:1018D000936843F0020191609368084903F00C0C8F
:1018E000BCF1080FF8D14A6C42F480434B64486E57
:1018F00040F480424A667047007000400038024061
:101900000854400700940838003C0240AFF30080C0
:101910002DE9F041144B154E154D164F164C002273
:101920005A603046FFF77CFC14481549B0622846DF
:101930003163F762FFF774FC124A1349AA62A7F1F8
:1019400018032046EB622963FFF76AFC0F48104B2F
:10195000A062A7F1240212205021E2622363BDE8B5
:10196000F041FEF775BE00BF00230140F4090020DE
:10197000280A0020B02E00085C0A00200020014048
:10198000172C020000210140172C02020022014006
:10199000172C0204AFF30080AFF30080AFF3008098
:1019A000C16A0A6810B4146824F001031360136854
:1019B00013F00103FBD10C7A826A49683D20A040F4
:1019C0000860012053609360906010BC704700BFB6
:1019D000504B1A68002112F0200F10B5196005D085
:1019E0004D4CE16A0A685068002864D14B4B186876
:1019F000002210F0200F1A6005D0494CE26A1068EE
:101A00004168002932D1474B1868002210F0200F9E
:101A10001A6027D0444CE26A1068416811B3236908
:101A200003B32046FFF7BCFF2169CB684BB105200B
:101A3000207001212046984794F800C0BCF1050FA2
:101A40005ED000222261202383F31188606930B1C7
:101A5000354B4FF0FF3141625A61FEF721FF002301
:101A600083F31188BDE81040FEF79ABD2369002B6F
:101A7000C9D02046FFF794FF2169CB684BB1052000
:101A8000207001212046984794F800C0BCF1050F52
:101A90003CD000222261202383F31188606930B199
:101AA0001F4B4FF0FF3141625A61FEF7F9FE0023F0
:101AB00083F31188A7E72369002B97D02046FFF70F
:101AC0006FFF2069C3684BB10522012122702046B7
:101AD000984794F800C0BCF1050F14D00022226191
:101AE000202383F31188606930B10B4B4FF0FF3135
:101AF00041625A61FEF7D4FE002383F3118875E733
:101B0000022222709DE702212170E7E70222227063
:101B1000BFE700BF00200140F40900200021014080
:101B2000280A0020002201405C0A0020AFF3008058
:101B300070B5194D2B69188A9C8904404FF6E072E4
:101B400014F0020F1A8222D114F0040F1AD114F0EB
:101B5000080F12D114F0100F0AD114F0010F03D0A6
:101B600069680D488B689847BDE87040FEF718BD5E
:101B70006A680948916A8847EFE76B6806481A6AFD
:101B80009047E7E7696804488B699847DFE76A6828
:101B9000284611698847D7E7900A0020AFF30080F4
:101BA00010B5034C2046FFF753FB024B236110BDD9
:101BB000900A002000080040AFF30080AFF30080DF
:101BC000034B998988B240F080029A81704700BF28
:101BD00000100140AFF30080AFF30080AFF300804E
:101BE000034B998988B240F080029A81704700BF08
:101BF00000440040AFF30080AFF30080AFF30080FB
:101C0000034B998988B240F080029A81704700BFE7
:101C100000480040AFF30080AFF30080AFF30080D6
:101C2000034B998988B240F080029A81704700BFC7
:101C300000140140AFF30080AFF30080AFF30080E9
:101C40002DE9F041066FB7893488B6F80480A4B254
:101C500014F00F0F0546BFB220D014F0080018BFD3
:101C6000802014F0010F18BF40F0200014F0020F84
:101C700018BF40F0400014F0040F18BF40F480700B
:101C8000202383F31188AB6843EA0002AA60281D71
:101C90000021FFF775F8002383F3118814F4807F87
:101CA00033D114F0200F24D117F0800F02D014F09C
:101CB000800F40D114F0400F19D0202383F31188F6
:101CC000AB6843F01000A8600021281DFFF758F80A
:101CD000002383F311884FF6BF7207EA0201B18136
:101CE000B6F800C02CF040031804020C3280BDE8A6
:101CF000F081202383F3118828465FFA88F1FFF7EB
:101D000037FB002383F31188CEE7202383F3118868
:101D1000A96841F40073AB60281D0021FFF730F87B
:101D2000002383F31188B6F800C02CF480700204FD
:101D3000110C3180B5E7202383F3118805F13000C1
:101D4000FFF756F9002804DBB080002383F31188E5
:101D5000B0E7A96841F00803281DAB600021FFF738
:101D60000FF827F0C00040F04002B281EDE700BF5D
:101D700010B50348FFF764FFBDE81040FEF710BC44
:101D8000A40A0020AFF30080AFF30080AFF300801F
:101D900010B50348FFF754FFBDE81040FEF700BC44
:101DA000180B0020AFF30080AFF30080AFF300808A
:101DB00010B50348FFF744FFBDE81040FEF7F0BB45
:101DC0008C0B0020AFF30080AFF30080AFF30080F6
:101DD00010B50348FFF734FFBDE81040FEF7E0BB45
:101DE000000C0020AFF30080AFF30080AFF3008061
:101DF000F8B5104F104A114E114D124C38460021C3
:101E0000FFF786FA104B114A3B6730460021FFF777
:101E10007FFA0F490F4A316728460021FFF778FA09
:101E20000D480E4A286700212046FFF771FA0C4B37
:101E30002367F8BDA40A0020C11B0008180B00206E
:101E40008C0B0020000C002000100140E11B00085A
:101E500000440040011C000800480040211C00080C
:101E600000140140AFF30080AFF30080AFF30080B7
:101E700038B5037B314C002918BF0C46012B0546B1
:101E800022D02B6F2E4A934234D002F5806C6345EA
:101E900030D020682B4AB2FBF0FCA3F808C0A2881F
:101EA000B4F806C0218942F4045040F02C024CF0F2
:101EB000400041F0010C00219A811882A3F814C05F
:101EC00019801A889B8838BD1F4988422CD01F4A28
:101ED000904215D01E4A90421CD01E488542D0D157
:101EE0001D4B596C41F020024720C0215A64FEF777
:101EF000AFFBC6E722681949B1FBF2F01881CEE7C3
:101F0000154B196C41F400322620C0211A64FEF7EB
:101F10009FFBB6E7104B196C41F480222720C021AB
:101F20001A64FEF795FBACE70B4B596C41F01002BD
:101F30002520C0215A64FEF78BFBCEE7E02E000877
:101F40000010014080DE8002A40A0020180B00204F
:101F50008C0B0020000C00200038024000BD010561
:101F600070B51249124D134C134E4FF0FF3CA1F8BF
:101F700000C02846FFF72CFA1048114AE86106F124
:101F800024032046AA6230322E626B62EA62FFF7B7
:101F90001FFA0C4B0C49A362A6F13C003033303ED3
:101FA000E16120626662E36270BD00BF740C0020D4
:101FB000780C0020A80C0020802E00080030014082
:101FC000160001061600010000380040AFF3008043
:101FD0002DE9F007DFF8E8A1DFF8E881DAF83090C2
:101FE000DFF8E4C16F4F704E704D714C7149724A09
:101FF000724B6FEA59296FEA4929CAF83090DAF82A
:1020000050906FEA59296FEA4929CAF85090D0F8E0
:102010000090C8F80090D0F80490C8F80490D0F868
:102020000890C8F80890D0F80C90C8F80C90D0F838
:102030001090C8F81490D0F81490C8F82090D0F8F8
:102040001890C8F82490D0F81C80CCF80080D0F804
:102050002080CCF80480D0F82480CCF80880D0F818
:102060002880CCF80C80D0F82C80CCF81480D0F8E4
:102070003080CCF82080D0F83480CCF82480D0F8A0
:1020800038C0C7F800C0D0F83CC0C7F804C0D0F8CA
:1020900040C0C7F808C0D0F844C0C7F80CC0D0F89A
:1020A00048C0C7F814C0D0F84CC0C7F820C0D0F85A
:1020B00050C0C7F824C0476D3760876D7760C76D23
:1020C000B760076EF760476E7761876E3762C76EDD
:1020D0007762066F2E60466F6E60866FAE60C66F69
:1020E000EE60D0F880606E61D0F884602E62D0F827
:1020F00088606E62D0F88C502560D0F89050656092
:10210000D0F89450A560D0F89850E560D0F89C5075
:102110006561D0F8A0502562D0F8A4506562D0F86F
:10212000A8400C60D0F8AC404C60D0F8B0408C6057
:10213000D0F8B440CC60D0F8B8404C61D0F8BC4086
:102140000C62D0F8C0404C62D0F8C4101160D0F8D6
:10215000C8105160D0F8CC109160D0F8D010D16088
:10216000D0F8D4105161D0F8D8101162D0F8DC103A
:102170005162D0F8E0201A60D0F8E4105960D0F82D
:10218000E8209A60D0F8EC10D960D0F8F0205A61BD
:10219000D0F8F4101962D0F8F8205A62BDE8F007C0
:1021A000704700BF00080240000C024000100240CF
:1021B0000014024000180240001C024000200240AF
:1021C000003802400000024000040240AFF30080EB
:1021D000FFF73EBBAFF30080AFF30080AFF30080AA
:1021E000704700BFAFF30080AFF30080AFF3008013
:1021F00070B400F10B0600F10A04B1FBF2F502FB2A
:10220000151101F13003392BC8BF01F137032946FD
:10221000254604F801390029EFD10446C5EB060C28
:10222000E2436044121812F0010F29460AD004F864
:10223000013B11F8013F05E011F8013F637011F80F
:10224000013F541C224602F8013B8242F4D170BC8B
:10225000704700BFAFF30080AFF30080AFF30080A2
:102260000EB42DE9F04F84B00DABDFF894B353F802
:10227000044B05460393217859B1013425290DD02B
:102280002A68284613694FF0FF32984721780029C1
:10229000F3D104B0BDE8F04F03B0704723782D2B85
:1022A00000F0898100262E2B08BF14F8013F039807
:1022B0000CBF4FF030084FF020084FF0000A611CAF
:1022C00007E0027804300AEB8A0A11F8013B02EBBE
:1022D0004A0AA3F13004E2B2092A0C46F3D92A2BA8
:1022E000EFD02E2B039000F050814FF0000C6C2BA0
:1022F00000F045814C2B00F04281A3F14100C1B2B6
:1023000019298CBF00210121A3F14407342F00F2C9
:102310001981DFE817F024011701170117011701D0
:102320001701170117011701170117011C011701E8
:1023300017011701170117013201170117010C01CD
:1023400017011701170117011701170117011701CD
:1023500017011701C3002401170117011701170105
:102360001701170117011701170117011C011701A8
:1023700017011701350017013201170117010C0170
:10238000039B1F681A1D002F08BF5F460392387811
:1023900047F6FF78BCF1000F08BFC446002800F0E4
:1023A0002B81781CC14384447A7801EB0C0909F035
:1023B0000101431C92B1634510D021B1184613F8B6
:1023C000012B4AB90AE01A46184612F8011B29B136
:1023D00059781046531C09B16345F4D1C7EB000985
:1023E000C9EB0A0A4FF020082AEAEA7A002E67D0E1
:1023F000B9F1000F28DD3E462A6816F8011B136963
:10240000B944FF4309EB070C28464FF0FF320CF0AC
:10241000010798474E4517D01FB12B6816F8011BCE
:102420000BE028683746036917F8011B4FF0FF32AD
:10243000284698472B6871787E1C1B6928464FF008
:10244000FF3298474E45ECD1BAF1000F3FF413AF7D
:102450002E680AF1FF3E33692846764641464FF022
:10246000FF320EF001079847002E3FF404AF1FB172
:102470002A68284613690AE02868414603694FF034
:10248000FF322846984729680B69013E2846414695
:102490004FF0FF329847013EEED1ECE603990A680F
:1024A0000B1D00AF03938DF800204FF02008781C1F
:1024B000C7EB0009C9EB0A0A2AEAEA7A002E97D18B
:1024C000CAF1000ABAF1000F92D039782D2900F034
:1024D000858029686FEA0A0E0B69284641464FF04D
:1024E000FF320EF0010698471AF1010A80D056B16A
:1024F000296828460B694FF0FF32414698471AF188
:10250000010A3FF475AF2868414603694FF0FF3276
:102510002846984728680AF1010A03694146284677
:102520004FF0FF3298471AF1010AECD160E7102210
:1025300081B1039B191D039119686846FFF758FE86
:102540006F46B5E700AF8DF80030781CB0E7082281
:102550000029EED10398071D01680397EDE70029D4
:102560002FD1039B19681A1D002903922FDB68469F
:102570000A22FFF73DFE6F469AE70A22D8E7227843
:10258000EAB1013413460121BEE64FF0000C05E02C
:10259000027804300CEB8C0C02EB4C0C0C4614F85B
:1025A000013BA3F13001CAB2092A2146F2D92A2BF4
:1025B000EED003909BE614F8013F012673E601215B
:1025C000A2E6039F3968381D00290390CFDA2D2039
:1025D00000AF8DF800004942781CC9E7B8F1300F10
:1025E0007FF477AF2A68284616694FF0FF32B0476C
:1025F000013709F1FF396CE738464FF0200857E7FB
:10260000F02F0008AFF30080AFF30080AFF300803D
:10261000002903DD0449054AFFF722BE044B0549A2
:10262000DA68FFF71DBE00BF003000080C3000085C
:102630001809002014300008AFF30080AFF30080C9
:1026400010B5002982B0044606DD1949194A02B0C6
:10265000BDE81040FFF704BE1749184AFFF700FE17
:1026600020461749174AFFF7FBFD20461649174A2F
:10267000FFF7F6FD20461649164AFFF7F1FD204602
:102680001549164AFFF7ECFD20461549154AFFF794
:10269000E7FD20461449154AFFF7E2FD14481549A5
:1026A0000090154A154B2046FFF7DAFD02B010BD29
:1026B000003000081C3000082430000838300008C2
:1026C00040300008543000086030000874300008C2
:1026D0008030000894300008A0300008B4300008B2
:1026E000CC300008E0300008003100081431000848
:1026F000543100082C3100084431000850310008E2
:102700000A6838B5054642B10C4628460349FFF72A
:10271000A7FD54F8082F002AF7D138BD6031000812
:102720002DE9F041054600680C4616469846A8B1CA
:102730002F4602E057F8080F68B13146FDF728FD33
:1027400005460028F6D120467E68069A4146B047E5
:102750002846BDE8F0810120BDE8F0810120BDE8F8
:10276000F08100BFAFF30080AFF30080AFF30080D3
:1027700038B504460D46A8B108600D492046FDF75E
:10278000B7FD241820462021FDF72AFD286018B146
:10279000002300F8013B28602078002814BF204661
:1027A000002038BD0C68002CE7D1204638BD00BFA2
:1027B000C02C0008AFF30080AFF30080AFF30080BF
:1027C000014B1B60704700BFD80C0020AFF30080A6
:1027D00000B583B0034B00900020FEF7A1F903B0D1
:1027E00000BD00BFA1280008AFF30080AFF3008058
:1027F000013A2DE9F843884605460F4601EB0209E8
:10280000296828464B694FF0FF31984704B2002CE5
:1028100006462CDB042C2DD0082C0FD00D2C30D0EC
:102820001F2CEDDD4F45EBD2296828460C694FF08F
:10283000FF32F1B2A04707F8016BE1E74745DFD06F
:102840002B6821461E694FF0FF322846B0472868A2
:10285000202103694FF0FF32284698472A6828460E
:10286000166921464FF0FF32B047013FC8E701200B
:10287000BDE8F88328460749FFF7F2FC0120BDE8D0
:10288000F88328460449FFF7EBFC00203870BDE8C8
:10289000F88300BF6431000810310008AFF30080F6
:1028A0002DE9F04164490468CB69644AD0F804809A
:1028B00063499A6198B02046FFF7D2FC0027204672
:1028C0006049FFF7CDFC204602A94022FFF790FFA8
:1028D000064600283BD117A902A8FFF749FF17A910
:1028E00005463046FFF744FF0346002841D03046F6
:1028F00017A91293FFF73CFF034600285CD030462F
:1029000017A91393FFF734FF0346002856D030462B
:1029100017A91493FFF72CFF0346002850D0304628
:1029200017A91593FFF724FF00284BD020464649EE
:10293000FFF796FC204643491696FFF791FC204688
:1029400002A94022FFF754FF06460028C3D02046C4
:102950003E49FFF785FC202383F3118800213C4882
:10296000FEF70EFA0020FEF7B3F8002018B0BDE81D
:10297000F08106460DF1600C0CEB860040F8187CE7
:10298000002D9CD028463349FDF702FC38B9002EB3
:10299000E1D0204630492F4AFFF762FC8FE72846F6
:1029A0002E49FDF7F5FB78B9002E30D020462A4994
:1029B0002A4AFFF755FC82E70126DBE70226D9E722
:1029C0000326D7E70426D5E712AA00922448214619
:1029D0002A463346FFF7A4FE00283FF470AFB8F153
:1029E000000F0AD03346404612AE21462A460096D2
:1029F000FFF796FE00283FF462AF204619492A46A9
:102A0000FFF72EFC20461849FFF72AFC57E7174925
:102A10002046FFF725FC20461149FFF771FEB8F16B
:102A2000000F03D020464146FFF76AFE20461049BA
:102A3000FFF716FC43E700BF2809002068310008B3
:102A400070310008883100089C310008903100087E
:102A5000D80C0020B431000800300008BC31000858
:102A600004080020DC310008E0310008C43100080F
:102A700010310008AFF30080AFF30080AFF30080A7
:102A80000149FFF7EDBB00BF20320008AFF3008023
:102A90000149FFF7E5BB00BF34320008AFF3008007
:102AA0002DE9F04385B000273F4840490197472270
:102AB0004FF0FF334FF00108029703970326FEF70C
:102AC000BFFA3B4CC14605E015F0020F2ED10320A2
:102AD000FEF716F9206910F0010F02D101990029C3
:102AE00046D0226912F0020F02D1029B002B4CD07B
:102AF000256915F0040F01D1039B63B3256915F017
:102B0000080501D1D7B101270320C821FEF758F9E4
:102B100010F0010F0546D7D01E22234825494FF05B
:102B2000FF33FEF78DFA15F0020FD0D022491E4870
:102B30001C224FF0FF33FEF783FAC8E711221A4830
:102B40001E494FF0FF33FEF77BFAB8F1010F29D190
:102B50004746A846D8E71322134819494FF0FF33D8
:102B6000FEF76EFA002EC4BFCDF80C90013EC5E70B
:102B700013220D4812494FF0FF33FEF761FA002E81
:102B8000C4BFCDF80490013EABE7132206480C49C0
:102B90004FF0FF33FEF754FA002EC4BFCDF8089073
:102BA000013EA5E7B846AFE7480B002048320008D1
:102BB000000C0240B8320008D8320008A4320008E5
:102BC00090320008AFF30080AFF30080AFF30080D5
:102BD000F0B587B0FEF704FB05ADFDF789FD304881
:102BE000304C0021FEF7B4FB284602A90322002640
:102BF0000595FEF76DF840222B4B2C4800964FF4BC
:102C00009071FDF73DFF03210746FEF7A9F8FFF796
:102C1000D7FD002E3BD0337F0E2B08BF00260121AD
:102C20002846FEF7BDF84FF400534FF4805123833C
:102C30004FF4FA706183FDF73BFF4FF4804C4FF483
:102C40000052A4F818C04FF4FA706283FDF730FF09
:102C500048F200034FF4804123834FF4FA706183FC
:102C6000FDF726FF4FF4805C48F200020221A4F831
:102C700018C028466283FEF793F84FF4FA70FDF708
:102C800017FF38460321FEF76BF8002EC3D1084822
:102C90004FF480614022FFF79BFD0646BFE700BF6F
:102CA000180B0020000C0240A12A0008E00C0020B4
:102CB00010320008AFF30080AFF30080AFF3008064
:102CC00020003900000000000000000000000000AB
:102CD00000202020202020202020282828282820EC
:102CE00020202020202020202020202020202020E4
:102CF000208810101010101010101010101010104C
:102D0000100404040404040404040410101010103B
:102D10001010414141414141010101010101010105
:102D20000101010101010101010101011010101057
:102D300010104242424242420202020202020202D7
:102D4000020202020202020202020202101010102B
:102D50002000000000000000000000000000000053
:102D60000000000000000000000000000000000063
:102D70000000000000000000000000000000000053
:102D80000000000000000000000000000000000043
:102D90000000000000000000000000000000000033
:102DA0000000000000000000000000000000000023
:102DB0000000000000000000000000000000000013
:102DC0000000000000000000000000000000000003
:102DD00000000000000000000000000000000000F3
:102DE00069646C65000000006D61696E00000000A0
:102DF000D1120008B1120008611200087112000817
:102E0000F1120008E1120008C1120008A112000826
:102E10008112000800000000000000000000000017
:102E2000106002400860024000000B002860024071
:102E30000860024006010C00406002400860024049
:102E400010020D00586002400860024016030E0098
:102E5000706002400C60024000040F008860024075
:102E60000C60024006051000A06002400C600240A9
:102E700010061100B86002400C60024016072F00D7
:102E800010640240086402400008380028640240D0
:102E900008640240060939004064024008640240A8
:102EA000100A3A005864024008640240160B3B00C6
:102EB000706402400C640240000C3C0088640240D4
:102EC0000C640240060D4400A06402400C64024001
:102ED000100E4500B86402400C640240160F460014
:102EE000009600000000004000000000000000000C
:102EF000A000200000000000FFFFFFFF540001645D
:102F0000FFFFFFFF0077565500AA0A008020A800A7
:102F100040020000FFFFFFFF15455155FFFFFFFF77
:102F2000000000774077000000A0000000000000D3
:102F3000FFFFFFFF54154554FFFFFFFF000000E8AF
:102F4000000606000000005500000000FFFFFFFF24
:102F500055505500CF0F0000000000000000000099
:102F60000000000000000000FFFFFFFF1055555556
:102F7000FFFFFFFF00000000000000000000000055
:102F800000000000FFFFFFFFFFFFFFFFFFFFFFFF4D
:102F90000000000000000000000000000000000031
:102FA000FFFFFFFFFFFFFFFFFFFFFFFF000000002D
:102FB000000000000000000000000000FFFFFFFF15
:102FC00050555555FFFFFFFF0000000000000000B6
:102FD0000000000000000000FFFFFFFFFFFFFFFFF9
:102FE000FFFFFFFF000000000000000000000000E5
:102FF000286E756C6C2900000000000000000000C5
:1030000055736167653A2025730D0A0073797374EF
:10301000696D6500256C750D0A000000696E666FAC
:10302000000000004B65726E656C3A202020202065
:10303000202025730D0A0000322E342E30000000AF
:10304000436F6D70696C65723A20202020202573D3
:103050000D0A000047434320342E352E3200000075
:103060004172636869746563747572653A2025738B
:103070000D0A000041524D76372D4D4500000000ED
:10308000436F72652056617269616E743A202573D0
:103090000D0A0000436F727465782D4D34000000F6
:1030A000506F727420496E666F3A2020202025737D
:1030B0000D0A0000416476616E636564206B657281
:1030C0006E656C206D6F646500000000506C61746B
:1030D000666F726D3A202020202025730D0A0000B3
:1030E00053544D3332463420486967682050657226
:1030F000666F726D616E6365202620445350000038
:10310000426F6172643A2020202020202020257305
:103110000D0A000053542053544D333246342D448D
:103120006973636F76657279000000004275696C9F
:10313000642074696D653A202020257325732573FA
:103140000D0A00004A756E202038203230313200DE
:10315000202D200031363A30343A3534000000005A
:10316000257320005E4400007368656C6C000000ED
:103170000D0A43686962694F532F525420536865A2
:103180006C6C0D0A0000000063683E200000000027
:103190000D0A6C6F676F757400000000746F6F200C
:1031A0006D616E7920617267756D656E74730D0A5D
:1031B00000000000657869740000000068656C70AC
:1031C00000000000436F6D6D616E64733A206865A6
:1031D0006C70206578697420000000002573000081
:1031E000203F0D0A00000000000000000000000069
:1031F00040320008912A00082C320008812A000879
:1032000000000000000000000000000000000000BE
:10321000180B0020F0310008000000000000000042
:10322000636F6D616E646F20636D645F737461744E
:1032300075730000636F6D616E646F20636D645F12
:1032400072657365740000004669726D776172651E
:1032500020706572206C656767657265206C6520FB
:1032600075736369746520646920756E206170727E
:103270006963616E63656C6C692E20446176696474
:103280006520546174656F2C20323031320A0D0094
:10329000466163746F72792044657374726F7965E7
:1032A000640A0D00546F7765722044657374726F01
:1032B0007965640A0D00000042616D206769752020
:1032C0006E656C2063616E657374726F20657665E0
:1032D0006E746F310A0D000046726F63696F206370
:1032E0006869206C65676765206C276576656E7414
:0832F0006F320A0D000000001E
:1032F800D02C00081C300008412600080C300008BB
:0C3308001126000800000000000000007A
:04000005080001905E
:00000001FF
